:100000000C9462000C948A000C948A000C948A0070
:100010000C948A000C948A000C948A000C948A0038
:100020000C948A000C948A000C948A000C948A0028
:100030000C948A000C948A000C948A000C948A0018
:100040000C94E5010C948A000C94F7030C9428049A
:100050000C948A000C948A000C948A000C948A00F8
:100060000C948A000C948A000000000024002700F1
:100070002A0000000000250028002B0000000000DE
:1000800023002600290004040404040404040202DA
:100090000202020203030303030301020408102007
:1000A0004080010204081020010204081020000012
:1000B0000007000201000003040600000000000029
:1000C0000000ED0411241FBECFEFD8E0DEBFCDBF8E
:1000D00011E0A0E0B1E0EAEEFBE002C005900D9275
:1000E000A832B107D9F711E0A8E2B1E001C01D9232
:1000F000A83DB107E1F710E0C4ECD0E004C02297BE
:10010000FE010E94EF05C23CD107C9F70E942A05F3
:100110000C94F3050C940000EF92FF920F931F9341
:100120007C0180E161E00E9406030027F7FC009556
:10013000102FC801B7010E94530281E161E00E94C3
:100140000603C801B7010E94530282E161E00E94E8
:100150000603C801B7010E94530283E161E00E94D7
:100160000603C801B7010E9453021F910F91FF902F
:10017000EF90089588EC90E00E948C000895EF9233
:10018000FF920F931F937C0180E160E00E940603C1
:100190000027F7FC0095102FC801B7010E945302F9
:1001A00081E160E00E940603C801B7010E9453028A
:1001B00082E160E00E940603C801B7010E94530279
:1001C00083E160E00E940603C801B7010E94530268
:1001D0001F910F91FF90EF90089588EC90E00E949E
:1001E000BF000895EF92FF920F931F937C018AE066
:1001F00060E00E9406030027F7FC0095102FC8015D
:10020000B7010E94530289E060E00E940603C80122
:10021000B7010E9453028BE060E00E940603C80110
:10022000B7010E9453028CE060E00E940603C801FF
:10023000B7010E9453028DE060E00E940603C801EE
:10024000B7010E9453021F910F91FF90EF90089504
:1002500088EC90E00E94F2000895EF92FF920F93D5
:100260001F937C018AE061E00E9406030027F7FCEF
:100270000095102FC801B7010E94530289E061E088
:100280000E940603C801B7010E9453028BE061E09F
:100290000E940603C801B7010E9453028CE061E08E
:1002A0000E940603C801B7010E9453028DE061E07D
:1002B0000E940603C801B7010E9453021F910F91CB
:1002C000FF90EF90089588EC90E00E942D01089532
:1002D0000E94BA0068EE73E080E090E00E94530252
:1002E0000E94630168EE73E080E090E00E94530298
:1002F0000E94ED0068EE73E080E090E00E945302FF
:100300000E94280168EE73E080E090E00E945302B2
:100310000895CF93DF93C9EBD1E0CE0140E855E2D9
:1003200060E070E00E946F04CE0160E071E00E9426
:1003300091058DE061E00E94E2028CE061E00E94A4
:10034000E2028BE061E00E94E2028AE061E00E944A
:10035000E20289E061E00E94E20280E161E00E9445
:10036000E20281E161E00E94E20282E161E00E943A
:10037000E20284E161E00E94E20285E161E00E9424
:10038000E20280E090E00E948C0080E090E00E9419
:100390002D0164EF71E080E090E00E94530280E064
:1003A00090E00E94BF0080E090E00E94F20060EDCB
:1003B00077E080E090E00E945302CE016FE071E0B0
:1003C0000E949105DF91CF9108951F920F920FB671
:1003D0000F9211242F933F938F939F93AF93BF93CB
:1003E00080912C0190912D01A0912E01B0912F01AF
:1003F000309130010196A11DB11D232F2D5F2D37A6
:1004000020F02D570196A11DB11D2093300180933E
:100410002C0190932D01A0932E01B0932F01809178
:10042000280190912901A0912A01B0912B010196F8
:10043000A11DB11D8093280190932901A0932A0149
:10044000B0932B01BF91AF919F918F913F912F91CD
:100450000F900FBE0F901F9018959FB7F8942091A2
:1004600028013091290140912A0150912B0186B534
:10047000A89B06C08F3F21F02F5F3F4F4F4F5F4F2C
:100480009FBF542F432F322F2227280F311D411D8C
:10049000511D82E0220F331F441F551F8A95D1F74B
:1004A000B901CA010895EF92FF920F931F93CF9362
:1004B000DF937B018C010E942D02EB010FC00E9493
:1004C0002D026C1B7D0B83E0683E780738F00894A2
:1004D000E108F10801091109C851DC4FE114F104E8
:1004E0000105110561F7DF91CF911F910F91FF90E9
:1004F000EF900895789484B5826084BD84B581605E
:1005000084BD85B5826085BD85B5816085BDEEE61B
:10051000F0E0808181608083E1E8F0E010828081FA
:1005200082608083808181608083E0E8F0E0808168
:1005300081608083E1EBF0E0808184608083E0EB88
:10054000F0E0808181608083EAE7F0E08081846070
:1005500080838081826080838081816080838081CC
:10056000806880831092C1000895833071F08430D8
:1005700028F48130A1F0823021F514C08630B1F02A
:100580008730D1F08430E9F404C0809180008F7707
:1005900003C0809180008F7D80938000089584B592
:1005A0008F7702C084B58F7D84BD08958091B0009F
:1005B0008F778093B00008958091B0008F7D8093F5
:1005C000B000089590E0FC01E656FF4F2491FC0135
:1005D000EA57FF4FE491EE23C1F0F0E0EE0FFF1F6A
:1005E000E859FF4F85919491DC01662341F49FB750
:1005F000F8948C91209582238C939FBF08959FB788
:10060000F8948C91822B8C939FBF08950F931F9326
:10061000DF93CF930F92CDB7DEB7282F30E0F901EB
:10062000E255FF4F8491F901E656FF4F14912A5786
:100630003F4FF90104910023D9F0882321F0698309
:100640000E94B5026981E02FF0E0EE0FFF1FEE5827
:10065000FF4F85919491DC019FB7F894662321F4B4
:100660008C911095812302C08C91812B8C939FBF1C
:100670000F90CF91DF911F910F910895FC01848518
:100680009585FC01E05CFF4F208131818E5B9F4F9F
:10069000FC0180819181281B390B2F733070C901B7
:1006A0000895FC0184859585FC01E05CFF4F408145
:1006B0005181FC01EE5BFF4F2081318142175307CE
:1006C00041F00190F081E02DE80FF91F208130E02A
:1006D00002C02FEF3FEFC9010895FC018485958585
:1006E000FC01E05CFF4F40815181FC01EE5BFF4F5C
:1006F000208131814217530771F0A081B181A80F89
:10070000B91F2C918081918101968F739070918394
:10071000808330E002C02FEF3FEFC9010895DC0174
:100720001E968D919C911F97FC01E05CFF4F8E5BA4
:100730009F4F40815181DC012D913C9111974217CF
:100740005307B9F708951F93FC01162F26853785A7
:10075000D901A05CBF4F8D919C91019660E470E03F
:100760000E94A405D901AE5BBF4F4D915C911197DA
:1007700084179507D1F3D901A05CBF4F0D90BC91B0
:10078000A02DA20FB31F1C93A685B785A05CBF4FF9
:1007900011969C938E93A689B7892C9181E090E065
:1007A000058C02C0880F991F0A94E2F7282B2C931E
:1007B00081E090E01F910895FB01E05CFF4F2081F4
:1007C00031812F5F3F4F2F733070DB01AE5BBF4F26
:1007D0004D915C9111972417350739F0A081B181B3
:1007E000A60FB71F8C9331832083089508951F921D
:1007F0000F920FB60F9211242F933F934F935F9355
:100800006F937F938F939F93AF93BF93EF93FF93D8
:100810008091C60061E371E00E94DC03FF91EF91DB
:10082000BF91AF919F918F917F916F915F914F9108
:100830003F912F910F900FBE0F901F90189589EB4D
:1008400091E00E943E03009711F00E94F603089584
:100850001F920F920FB60F9211242F933F935F9325
:100860006F937F938F939F93AF93BF93EF93FF9378
:100870002091B5013091B6018091B7019091B801F6
:100880002817390731F48091C1008F7D8093C10012
:1008900016C0E091B701F091B801EB58FE4F2081EE
:1008A0008091B7019091B801019660E470E00E94D8
:1008B000A4059093B8018093B7012093C600FF91DF
:1008C000EF91BF91AF919F918F917F916F915F91C8
:1008D0003F912F910F900FBE0F901F901895DF92B0
:1008E000EF92FF920F931F93CF93DF93EC017A0166
:1008F0008B01DD24D394403081EE580780E06807F7
:1009000080E0780749F4DD24EC89FD89108260E8F5
:1009100074E88EE190E00FC0EC89FD8981E090E001
:100920000E8C02C0880F991F0A94E2F7808360E062
:1009300079E08DE390E0A80197010E94B70521506E
:10094000304040405040569547953795279580E177
:100950002030380710F0DD20B1F6E889F9893083BE
:10096000EA89FB892083EE89FF89408181E090E05C
:100970009C010A8C02C0220F331F0A94E2F7422B1B
:100980004083EE89FF8940819C010B8C02C0220FBD
:10099000331F0A94E2F7422B4083EE89FF8940819E
:1009A0009C010C8C02C0220F331F0A94E2F7422BE9
:1009B0004083EE89FF8920810D8C02C0880F991F2A
:1009C0000A94E2F7809582238083DF91CF911F9173
:1009D0000F91FF90EF90DF9008951092BC0110925C
:1009E000BB0188EE93E0A0E0B0E08093BD0190935E
:1009F000BE01A093BF01B093C001EBEBF1E08BE12E
:100A000091E09293829381E391E09587848785E7D3
:100A100091E09787868785EC90E0918B808B84ECC2
:100A200090E0938B828B80EC90E0958B848B81ECB3
:100A300090E0978B868B86EC90E0918F808F84E09E
:100A4000828F83E0838F87E0848F85E0858F81E0CC
:100A5000868F0895CF93DF930E947A020E948901C6
:100A6000CFE1D4E00E9468012097E1F30E941F04C7
:100A7000F9CFCF92DF92EF92FF920F931F93CF9314
:100A8000DF936C017B018A01C0E0D0E00FC0D70189
:100A90006D917D01D601ED91FC910190F081E02DE9
:100AA000C6010995C80FD91F015010400115110545
:100AB00071F7CE01DF91CF911F910F91FF90EF90D1
:100AC000DF90CF900895DB010D900020E9F7AD0194
:100AD00041505040461B570BDC01ED91FC910280C8
:100AE000F381E02D09950895DC01ED91FC910190D1
:100AF000F081E02D099508950F931F93CF93DF9315
:100B0000EC016DE00E9474058C01CE016AE00E9448
:100B10007405080F191FC801DF91CF911F910F9124
:100B200008950F931F93CF93DF93EC010E94630509
:100B30008C01CE010E947C05080F191FC801DF91AE
:100B4000CF911F910F91089597FB092E07260AD088
:100B500077FD04D02ED006D000201AF47095619550
:100B60007F4F0895F6F7909581959F4F0895A1E2E4
:100B70001A2EAA1BBB1BFD010DC0AA1FBB1FEE1F17
:100B8000FF1FA217B307E407F50720F0A21BB30B62
:100B9000E40BF50B661F771F881F991F1A9469F7DE
:100BA00060957095809590959B01AC01BD01CF013A
:100BB0000895AA1BBB1B51E107C0AA1FBB1FA617A4
:100BC000B70710F0A61BB70B881F991F5A95A9F7F6
:100BD00080959095BC01CD010895EE0FFF1F059003
:0A0BE000F491E02D0994F894FFCF82
:100BEA004E6F6E6F2074657374206C656473005069
:100BFA007265742E2E2E0000000000A30339053EF4
:080C0A00036D0351038F030089
:00000001FF
